{
  "contractName": "Donation",
  "abi": [
    {
      "inputs": [],
      "stateMutability": "nonpayable",
      "type": "constructor"
    },
    {
      "anonymous": false,
      "inputs": [
        {
          "indexed": false,
          "internalType": "address",
          "name": "donor",
          "type": "address"
        },
        {
          "indexed": false,
          "internalType": "uint256",
          "name": "amount",
          "type": "uint256"
        },
        {
          "indexed": false,
          "internalType": "enum Donation.Category",
          "name": "category",
          "type": "uint8"
        }
      ],
      "name": "DonationReceived",
      "type": "event"
    },
    {
      "anonymous": false,
      "inputs": [
        {
          "indexed": false,
          "internalType": "address",
          "name": "owner",
          "type": "address"
        },
        {
          "indexed": false,
          "internalType": "uint256",
          "name": "amount",
          "type": "uint256"
        }
      ],
      "name": "FundsWithdrawn",
      "type": "event"
    },
    {
      "inputs": [
        {
          "internalType": "enum Donation.Category",
          "name": "",
          "type": "uint8"
        }
      ],
      "name": "categoryDonations",
      "outputs": [
        {
          "internalType": "uint256",
          "name": "",
          "type": "uint256"
        }
      ],
      "stateMutability": "view",
      "type": "function",
      "constant": true
    },
    {
      "inputs": [
        {
          "internalType": "address",
          "name": "",
          "type": "address"
        }
      ],
      "name": "donorBalances",
      "outputs": [
        {
          "internalType": "uint256",
          "name": "",
          "type": "uint256"
        }
      ],
      "stateMutability": "view",
      "type": "function",
      "constant": true
    },
    {
      "inputs": [],
      "name": "owner",
      "outputs": [
        {
          "internalType": "address",
          "name": "",
          "type": "address"
        }
      ],
      "stateMutability": "view",
      "type": "function",
      "constant": true
    },
    {
      "inputs": [],
      "name": "totalDonations",
      "outputs": [
        {
          "internalType": "uint256",
          "name": "",
          "type": "uint256"
        }
      ],
      "stateMutability": "view",
      "type": "function",
      "constant": true
    },
    {
      "inputs": [
        {
          "internalType": "uint256",
          "name": "amount",
          "type": "uint256"
        },
        {
          "internalType": "uint256",
          "name": "category",
          "type": "uint256"
        }
      ],
      "name": "donate",
      "outputs": [],
      "stateMutability": "payable",
      "type": "function",
      "payable": true
    },
    {
      "inputs": [
        {
          "internalType": "uint256",
          "name": "category",
          "type": "uint256"
        }
      ],
      "name": "getCategoryDonations",
      "outputs": [
        {
          "internalType": "uint256",
          "name": "",
          "type": "uint256"
        }
      ],
      "stateMutability": "view",
      "type": "function",
      "constant": true
    },
    {
      "inputs": [],
      "name": "getBalance",
      "outputs": [
        {
          "internalType": "uint256",
          "name": "",
          "type": "uint256"
        }
      ],
      "stateMutability": "view",
      "type": "function",
      "constant": true
    },
    {
      "inputs": [],
      "name": "withdrawFunds",
      "outputs": [],
      "stateMutability": "nonpayable",
      "type": "function"
    },
    {
      "inputs": [
        {
          "internalType": "address",
          "name": "donor",
          "type": "address"
        }
      ],
      "name": "getDonorInfo",
      "outputs": [
        {
          "internalType": "uint256",
          "name": "",
          "type": "uint256"
        },
        {
          "internalType": "uint256",
          "name": "",
          "type": "uint256"
        }
      ],
      "stateMutability": "view",
      "type": "function",
      "constant": true
    }
  ],
  "bytecode": "0x608060405234801561001057600080fd5b50336000806101000a81548173ffffffffffffffffffffffffffffffffffffffff021916908373ffffffffffffffffffffffffffffffffffffffff160217905550610c1b806100606000396000f3fe6080604052600436106100865760003560e01c80637b4ac4cb116100595780637b4ac4cb146101265780637b8c8de1146101635780638da5cb5b146101a0578063c46a60a5146101cb578063de2ed8931461020957610086565b80630cdd53f61461008b57806312065fe0146100a757806324600fc3146100d257806336f85829146100e9575b600080fd5b6100a560048036038101906100a091906106fd565b610234565b005b3480156100b357600080fd5b506100bc6103d2565b6040516100c9919061074c565b60405180910390f35b3480156100de57600080fd5b506100e76103da565b005b3480156100f557600080fd5b50610110600480360381019061010b9190610767565b610573565b60405161011d919061074c565b60405180910390f35b34801561013257600080fd5b5061014d600480360381019061014891906107b9565b61061b565b60405161015a919061074c565b60405180910390f35b34801561016f57600080fd5b5061018a60048036038101906101859190610844565b610633565b604051610197919061074c565b60405180910390f35b3480156101ac57600080fd5b506101b561064b565b6040516101c29190610880565b60405180910390f35b3480156101d757600080fd5b506101f260048036038101906101ed9190610844565b61066f565b60405161020092919061089b565b60405180910390f35b34801561021557600080fd5b5061021e6106bc565b60405161022b919061074c565b60405180910390f35b813414610276576040517f08c379a000000000000000000000000000000000000000000000000000000000815260040161026d90610921565b60405180910390fd5b60038081111561028957610288610941565b5b8111156102cb576040517f08c379a00000000000000000000000000000000000000000000000000000000081526004016102c2906109bc565b60405180910390fd5b81600260003373ffffffffffffffffffffffffffffffffffffffff1673ffffffffffffffffffffffffffffffffffffffff168152602001908152602001600020600082825461031a9190610a0b565b92505081905550816003600083600381111561033957610338610941565b5b600381111561034b5761034a610941565b5b600381111561035d5761035c610941565b5b8152602001908152602001600020600082825461037a9190610a0b565b925050819055507f715c4f23afe7c533926b349a012a9b6fa60f5bd8a36b05bbbd302793fabc82e133838360038111156103b7576103b6610941565b5b6040516103c693929190610a87565b60405180910390a15050565b600047905090565b60008054906101000a900473ffffffffffffffffffffffffffffffffffffffff1673ffffffffffffffffffffffffffffffffffffffff163373ffffffffffffffffffffffffffffffffffffffff1614610468576040517f08c379a000000000000000000000000000000000000000000000000000000000815260040161045f90610b30565b60405180910390fd5b6000479050600081116104b0576040517f08c379a00000000000000000000000000000000000000000000000000000000081526004016104a790610b9c565b60405180910390fd5b60008054906101000a900473ffffffffffffffffffffffffffffffffffffffff1673ffffffffffffffffffffffffffffffffffffffff166108fc829081150290604051600060405180830381858888f19350505050158015610516573d6000803e3d6000fd5b507feaff4b37086828766ad3268786972c0cd24259d4c87a80f9d3963a3c3d999b0d60008054906101000a900473ffffffffffffffffffffffffffffffffffffffff1682604051610568929190610bbc565b60405180910390a150565b600060038081111561058857610587610941565b5b8211156105ca576040517f08c379a00000000000000000000000000000000000000000000000000000000081526004016105c1906109bc565b60405180910390fd5b600360008360038111156105e1576105e0610941565b5b60038111156105f3576105f2610941565b5b600381111561060557610604610941565b5b8152602001908152602001600020549050919050565b60036020528060005260406000206000915090505481565b60026020528060005260406000206000915090505481565b60008054906101000a900473ffffffffffffffffffffffffffffffffffffffff1681565b600080600260008473ffffffffffffffffffffffffffffffffffffffff1673ffffffffffffffffffffffffffffffffffffffff168152602001908152602001600020544291509150915091565b60015481565b600080fd5b6000819050919050565b6106da816106c7565b81146106e557600080fd5b50565b6000813590506106f7816106d1565b92915050565b60008060408385031215610714576107136106c2565b5b6000610722858286016106e8565b9250506020610733858286016106e8565b9150509250929050565b610746816106c7565b82525050565b6000602082019050610761600083018461073d565b92915050565b60006020828403121561077d5761077c6106c2565b5b600061078b848285016106e8565b91505092915050565b600481106107a157600080fd5b50565b6000813590506107b381610794565b92915050565b6000602082840312156107cf576107ce6106c2565b5b60006107dd848285016107a4565b91505092915050565b600073ffffffffffffffffffffffffffffffffffffffff82169050919050565b6000610811826107e6565b9050919050565b61082181610806565b811461082c57600080fd5b50565b60008135905061083e81610818565b92915050565b60006020828403121561085a576108596106c2565b5b60006108688482850161082f565b91505092915050565b61087a81610806565b82525050565b60006020820190506108956000830184610871565b92915050565b60006040820190506108b0600083018561073d565b6108bd602083018461073d565b9392505050565b600082825260208201905092915050565b7f416d6f756e74206d757374206d61746368207468652073656e742076616c7565600082015250565b600061090b6020836108c4565b9150610916826108d5565b602082019050919050565b6000602082019050818103600083015261093a816108fe565b9050919050565b7f4e487b7100000000000000000000000000000000000000000000000000000000600052602160045260246000fd5b7f496e76616c69642063617465676f727900000000000000000000000000000000600082015250565b60006109a66010836108c4565b91506109b182610970565b602082019050919050565b600060208201905081810360008301526109d581610999565b9050919050565b7f4e487b7100000000000000000000000000000000000000000000000000000000600052601160045260246000fd5b6000610a16826106c7565b9150610a21836106c7565b9250828201905080821115610a3957610a386109dc565b5b92915050565b60048110610a5057610a4f610941565b5b50565b6000819050610a6182610a3f565b919050565b6000610a7182610a53565b9050919050565b610a8181610a66565b82525050565b6000606082019050610a9c6000830186610871565b610aa9602083018561073d565b610ab66040830184610a78565b949350505050565b7f4f6e6c7920746865206f776e65722063616e2077697468647261772066756e6460008201527f7300000000000000000000000000000000000000000000000000000000000000602082015250565b6000610b1a6021836108c4565b9150610b2582610abe565b604082019050919050565b60006020820190508181036000830152610b4981610b0d565b9050919050565b7f4e6f2066756e647320746f207769746864726177000000000000000000000000600082015250565b6000610b866014836108c4565b9150610b9182610b50565b602082019050919050565b60006020820190508181036000830152610bb581610b79565b9050919050565b6000604082019050610bd16000830185610871565b610bde602083018461073d565b939250505056fea2646970667358221220ed08a26d346bb622eddc9cab210ca78e89df60e3d65485743da748b94b232a7a64736f6c63430008130033",
  "immutableReferences": {},
  "source": "// SPDX-License-Identifier: MIT\r\npragma solidity 0.8.19;\r\n\r\ncontract Donation {\r\n    address public owner;\r\n    uint public totalDonations; // Track total donations\r\n\r\n    enum Category { Agriculture, ChildrenFood, Studies, Homeless }\r\n    mapping(address => uint) public donorBalances;\r\n    mapping(Category => uint) public categoryDonations; // Donations by category\r\n\r\n    // Define events\r\n    event DonationReceived(address donor, uint amount, Category category);\r\n    event FundsWithdrawn(address owner, uint amount);\r\n\r\n    constructor() {\r\n        owner = msg.sender; // Contract owner\r\n    }\r\n\r\n    // Function to accept donations\r\n    function donate(uint amount, uint category) public payable {\r\n        require(msg.value == amount, \"Amount must match the sent value\");\r\n        require(category <= uint(Category.Homeless), \"Invalid category\");\r\n\r\n        donorBalances[msg.sender] += amount;\r\n        categoryDonations[Category(category)] += amount;\r\n\r\n        emit DonationReceived(msg.sender, amount, Category(category));\r\n    }\r\n\r\n    // Function to get total donations in a category\r\n    function getCategoryDonations(uint category) public view returns (uint) {\r\n        require(category <= uint(Category.Homeless), \"Invalid category\");\r\n        return categoryDonations[Category(category)];\r\n    }\r\n\r\n    // Function to check contract balance (public)\r\n    function getBalance() public view returns (uint) {\r\n        return address(this).balance;\r\n    }\r\n\r\n    // Function to withdraw funds (only owner)\r\n    function withdrawFunds() public {\r\n        require(msg.sender == owner, \"Only the owner can withdraw funds\");\r\n        uint balance = address(this).balance;\r\n        require(balance > 0, \"No funds to withdraw\");\r\n\r\n        payable(owner).transfer(balance);\r\n        emit FundsWithdrawn(owner, balance);\r\n    }\r\n\r\n    // Function to get donor information\r\n    function getDonorInfo(address donor) public view returns (uint, uint) {\r\n        return (donorBalances[donor], block.timestamp);\r\n    }\r\n}\r\n",
  "sourcePath": "C:\\Users\\katta\\OneDrive\\Desktop\\INNOVARSITY FOLDER\\supplychain-it-kits-soc\\contracts\\Donation.sol",
  "compiler": {
    "name": "solc",
    "version": "0.8.19+commit.7dd6d404.Emscripten.clang"
  },
  "schemaVersion": "3.4.16",
  "updatedAt": "2024-09-23T00:32:04.887Z",
  "networkType": "ethereum",
  "devdoc": {
    "kind": "dev",
    "methods": {},
    "version": 1
  },
  "userdoc": {
    "kind": "user",
    "methods": {},
    "version": 1
  }
}